590000001974VARCIOLINO DE SOUSA DIAS                                    1963112928717945100M2EST0120170201403100FPE101320170201201901300000000990000000000000040000000404
590000002176MARIA MADALENA DOS ANJOS                                    1957051015252760187F1EST0120170201403100   000000000000000000000000000000000000000000040000000448
590000002195MARIA HELENA VASCONCELOS SILVA                              1954121905710103187F2EST0120170201403101   000000000000000000000000000000000000000000040000000465
590000002220ALAIDE ANTUNES DE MENEZES                                   1967022437962400110F4EST0820170201403101   000000000000000000000000000000000000000000040000000315
590000002297LUIS FERNANDO ROSA                                          1964071923861762153M2EST0120170201403101   000000000000000000000000000000000000000000040000000465
590000027609MARIO MARQUES DINIZ                                         1963042647980672615M1EST0120170201403100   000000000000000000000000000000000000000000040000000658
590000032646WIRANDY NUNES DE LUCENA                                     1963101724766488172M2EST0820170201403101   000000000000000000000000000001750000000295740000000315
590000034647ROGERIO JOSE RABELO                                         1965101635187700120M4EST0820170201403100   000000000000000000000000000001720000000010340000000315
590000039707REGINA DA GLORIA MACIEL COSTA                               1956081611629177172F2EST0820170201403101   000000000000000000000000000004011500000002840000000315
590000040440CARLOS MOREIRA DE OLIVEIRA                                  1965110634278486120M4EST0120170201403101   000000000000000000000000000000000000000000040000000373
590000040647ROSANGELA MATHIAS DE LIMA                                   1957020911944145168F4EST0120170201403101   000000000000000000000000000000000000000000040000000943
590000041045JANES JOSE DE ALMEIDA SILVA                                 1961110620814224334M2EST0120170201403101   000000000000000000000000000000000000000033340000000333
590000041046LAERCIO DA SILVA MORALES                                    1965011023866047134M2EST0120170201403101   000000000000000000000000000000000000000000040000000464
590000053912CLAUDIO AZEVEDO COSTA                                       1967061741784251100M2EST0820170201403100   000000000000000000000000000003310000000017340000000315
590000054995VICTOR DO ESPIRITO SANTO NETO                               1951041511600209149M2EST0120170201403100   000000000000000000000000000000000000000000040000000440
590000055923PEDRO CRISOSTOMO ROSARIO                                    1962050823876573149M3EST0120170201403100   000000000000000000000000000000000000000000040000000510
590000056845SARA DO NASCIMENTO                                          1963092679235700787F1EST0120170201403100   000000000000000000000000000000000000000000040000000705
590000059696ARNALDO CARDOSO DE FREITAS FILHO                            1959122310009078215M2EST0120170201403101   000000000000000000000000000000000000000000040000000889
590000059867MARIA ELENA ELIAS                                           1960091535915781187F1EST0120170201403101   000000000000000000000000000000000000000000040000000333
590000059877RAIMUNDO AZEVEDO BARBOSA                                    1962022328176081191M2EST0120170201403101   000000000000000000000000000000000000000000040000000315
590000059884SANDRA MARIA COSTA FORTES                                   1961032418389767368F4EST0820170201403101   000000000000000000000000000002010100000263540000000315
590000059903IRINEU BARROSO DA SILVA JUNIOR                              1962101123985976104M4EST0120170201403100   000000000000000000000000000000000000000000040000000333
590000059904JESSE DELFINO FERREIRA                                      1961030722276050144M2EST0120170201403100   000000000000000000000000000001600000000001540000000315
590000059908PAULO DE SOUZA MATTOS                                       1963060936946729153M2EST0120170201403101   000000000000000000000000000001600000000001540000000315
590000059910BEATRIZ MARIA OLIVEIRA BRANT DA SILVEIRA                    1964041837976796100F2EST0820170201403101   000000000000000000000000000001600000000004940000000315
590000059911DANIEL PEDRO DA SILVA                                       1952010657763097868M1EST0120170201403101   000000000000000000000000000001600000000123040000000315
590000059915JUPIARA TELLES MONTEIRO CARVALHEDO                          1963022822749284104F2EST0120170201403101   000000000000000000000000000000000000000000040000000334
590000059928JONE ANTONIO JARDIM                                         1962051831761305115M4EST0120170201403101   000000000000000000000000000000000000000000040000000339
590000059948JACILENE ALMEIDA MATTOS                                     1954012904896173287F2EST0120170201403101   000000000000000000000000000000000000000000040000000315
590000079284HENRIQUE CESAR SISTEROLLI KAMCHEN                           1963022737958470100M4EST0820170201403100   000000000000000000000000000003300000000177140000000315
590000092415BENEDITO ORLANDO NAVA CASTRO                                1954010711247851168M2EST0820170201403100   000000000000000000000000000002500000000844440000000315
590000092434MARIA ADELIA MARQUES DOURADO DE SA                          1956120111548100110F2EST0120170201403101   000000000000000000000000000000000000000000040000000465
590000092452MARIA JOSELINA DA COSTA                                     1955082912059323134F2EST0120170201403100   000000000000000000000000000003500000000066940000000315
590000092753EDVON PIRES NOGUEIRA                                        1964052324848832187M2EST0820170201403101   000000000000000000000000000002610600000085740000000315
590000092792ELENIZA MEIRELES DOS SANTOS AZEVEDO                         1963101629127840182F2EST0120170201403100   000000000000000000000000000000000000000000040000000440
590000092796GERALDO MOURAO DA SILVA                                     1964012648323284687M2EST0820170201403100   000000000000000000000000000004920000000016540000000315
590000092804MARCIO TRAMONT CISNEIROS                                    1966052538012146134M2EST0120170201403101   000000000000000000000000000000000000000000040000000906
590000092852VALERIO VICTORINO ANDRE COELHO                              1962032324916358104M1EST0120170201403101   000000000000000000000000000000000000000000040000000373
590000092926CRISTO BEZERRA BONFIM                                       1959111922375473191M1EST0120170201403101   000000000000000000000000000000000000000000040000000386
590000092995ELIZEU TAVARES DE OLIVEIRA                                  1961120124500046100M2EST0120170201403100   000000000000000000000000000000000000000000040000000460
590000093024WALDEMAR GONCALVES DE ALMEIDA                               1951020208558957134M1EST0120170201403101   000000000000000000000000000000000000000000040000000801
590000093046CARLOS ALBERTO CAETANO                                      1964030128490282153M2EST0820170201403100   000000000000000000000000000005400000000029940000000315
590000093067MARCELO CANTUARIO DOS SANTOS NETO                           1963120626571560100M2EST0820170201403101   000000000000000000000000000009901061210000040000000315
590000093099JOSIMIRO PEREIRA DE ANDRADE                                 1965091225822640168M2EST0120170201403101   000000000000000000000000000000000000000000040000000859
590000093170CARLOS ALBERTO DOS SANTOS SILVA                             1966042336675105191M2EST0820170201403100   000000000000000000000000000003310000000017340000000315
590000093195NELSON ANTERO NORONHA ESPINOZA                              1964040626323907100M2EST0120170201403101   000000000000000000000000000000000000000000040000000962
590000093249CARLOS ALEXANDRE VIEIRA DE VASCONCELOS                      1964011735272317491M2EST0120170201403101FPE101320170201201808220000000290000000000000040000000907
590000093384ALBERTO OLIVEIRA DA SILVA                                   1965051532478402149M2EST0120170201403101   000000000000000000000000000000000000000000040000000672
590000093385ELZA MARIA SOARES HELENO                                    1950070911267950110F2EST0120170201403101   000000000000000000000000000000000000000000040000000460
590000093397SOLANEA MARIA DA CONCEICAO BULHAO SANTOS                    1961120726190397115F4EST0820170201403101   000000000000000000000000000000000000000000040000000315
590000093414JOAO COLACO DOS SANTOS                                      1953112614383519172M1EST0120170201403101   000000000000000000000000000000000000000000040000000811
590000093426GILBERTO PEREIRA LOPES                                      1964030333390533168M1EST0120170201403101   000000000000000000000000000000000000000000040000000506
590000093437ULYSSES RODRIGUES DOS SANTOS                                1963112722673741100M2EST0120170201403101   000000000000000000000000000003500000000023140000000315
590000093462TEREZA SILVA BASTOS                                         1959121315398617168F4EST0120170201403101   000000000000000000000000000000000000000000040000000839
590000093515FRANCISCO ALTAMIR BATISTA                                   1963112029595096172M2EST0120170201403101   000000000000000000000000000000000000000000040000000970
590000093521MONICA DIAS AVELINO                                         1965073031646549104F1EST0820170201403101   000000000000000000000000000002010100000236740000000315
590000093523RICARDO RIBEIRO DE OLIVEIRA                                 1964040631469574187M1EST0120170201403101   000000000000000000000000000000000000000000040000000315
590000093566ISRAEL JOSE REIS DE CARVALHO                                1958042414639840144M2EST0120170201403101FEX011520220726202301020000005660000000000000040000000970
590000093678SHEILA PEIXOTO ESCOVEDO DA COSTA                            1966030634340980110F2EST0120170201403101   000000000000000000000000000000000000000000040000000383
590000093686HELTON RODRIGUES DA CAMARA                                  1965092834420894172M2EST0120170201403101   000000000000000000000000000002100000000021440000000315
590000093691IRACILDE DIAS DOS SANTOS                                    1963082622368035168F4EST0820170201403100   000000000000000000000000000002010100000253340000000315
590000093711CLESIO ROMEIRO                                              1964100929003687153M2EST0120170201403101   000000000000000000000000000000000000000000040000000411
590000093713MAURICIO BARBOSA CINTRA                                     1964011332708211153M4EST0120170201403101   000000000000000000000000000000000000000000040000000836
590000093730FRANCISCO DAS CHAGAS DE MOURA SILVA                         1961111925808958172M2EST0120170201403101FEX011020230131000000000000003450000000000000040000000345
590000094030HILDA FIGUEIREDO VIEIRA                                     1963111020118791320F4EST0120170201403100   000000000000000000000000000002010100000300940000000315
590000094140BERONY SOUZA E SILVA                                        1954032214683741172M2EST0120170201481262   000000000000000000000000000000000000000000040000000836
590000094998JOSE CARLOS ALVES FERREIRA                                  1958071215044793191M2EST0120170201481262RGA000520200803202207260000003450000000000000040000000345
590000095397CLAUDIO ANTONIO DE ALMEIDA PY                               1963062229290589191M2EST0820170201403100   000000000000000000000000000003300000000176040000000315
590000102794NIVALDO AUGUSTO PEREIRA                                     1949101807421222472M1EST0120170201481262   000000000000000000000000000000000000000000040000000887
590000102905SERGIO CUNHA                                                1964072059086815987M3EST0120170201403101   000000000000000000000000000000000000000000040000000858
590000102942FRANCISCO CLERO GOMES MONTEIRO                              1965050842463041404M4EST0120170201403101   000000000000000000000000000000000000000000040000000671
590000103623WALDEMAR ALVES DA SILVA                                     1952013003469727287M2EST0120170201403100   000000000000000000000000000000000000000000040000000666
590000104766MARIA LUCIA CEDRIM DA SILVA                                 1957020411149884487F5EST0120170201403101   000000000000000000000000000000000000000000040000000581
590000108021HELIO ALEXANDRE DOS SANTOS                                  1963062781911424734M1EST0120170201403100   000000000000000000000000000000000000000000040000000709
590000109588EDILSON CORREIA ALVES LIMA                                  1964040621759391387M2EST0820170201403100   000000000000000000000000000002627900000000440000000694
590000115990VOLNEY NERY DE MELLO                                        1961081024962937120M2EST0120170201403101   000000000000000000000000000000000000000000040000000648
590000116519JOAO CARLOS GOMES ORMOND                                    1966090242094186172M1EST0120170201403100   000000000000000000000000000000000000000000040000000398
590000116659EDSON SANTA BRIGIDA FRAGOSO                                 1964031126966921220M4EST0120170201403101FEX010520220726000000000000006640000000000000040000000664
590000117389MARIA AUGUSTA DA CONCEICAO MORAIS                           1951122823254157672F2EST0120170201403101   000000000000000000000000000000000000000000040000000811
590000117499DORACY NASCIMENTO MORESCHI                                  1952101332460821700F2EST0120170201403101   000000000000000000000000000000000000000000040000000830
590000117543LAURIMAR BASTOS RAMOS ROCHA                                 1958090513826921372F1EST0120170201481026   000000000000000000000000000000000000000000040000000798
590000117914MARIA DE FATIMA CAPISTRANO DE SOUSA                         1964020921376344300F1EST0120170201403101   000000000000000000000000000000000000000000040000000609
590000117939CARLOS CESAR DE OLIVEIRA CARNEIRO                           1963121622077588349M4EST0120170201403101   000000000000000000000000000000000000000000040000000609
590000118128JOAO DA ROCHA BARROS                                        1956101909603263320M2EST0120170201403101   000000000000000000000000000000000000000000040000000696
590000118521ALVARO ROBERTO VIEIRA DE ASSIS                              1963072729719232153M2EST0120170201403100   000000000000000000000000000000000000000000040000000832
590000119204JOSIAS COSTA LEAL                                           1963081918145140234M2EST0120170201403101FGR000320170201201807040000005740000000000000040000000574
590000119275EDILSON RODRIGUES VIDAL                                     1959091809112243272M2EST0120170201403101   000000000000000000000000000000000000000000040000000574
590000119389LEILA JULIARI ARAUJO DA CUNHA                               1966110407325451881F5EST0120170201403101FEX010520220726000000000000007310000000000000040000000731
590000119573LUIZ GONZAGA ALVARES DE OLIVEIRA                            1961091422550518187M2EST0820170201403100   000000000000000000000000000002644303200000040000000624
590000121128FRANCISCO CHAGAS DOS SANTOS                                 1955010910239367553M2EST0120170201481262   000000000000000000000000000000000000000000040000000853
590000121152MARCOS ANTONIO DRESCHER                                     1958052648583065772M2EST0120170201481262   000000000000000000000000000000000000000000040000000839
590000121189NELSON LUIZ DA SILVA SOUSA                                  1964052526531674504M1EST0120170201403101   000000000000000000000000000000000000000000040000000863
590000121519GISELE MOREIRA PINTO                                        1960102463814846753F4EST0120170201403101   000000000000000000000000000000000000000000040000000710
590000122867ADILSON DE SOUZA NASCIMENTO                                 1952020902085992587M2EST0120170201403101   000000000000000000000000000000000000000000040000000601
590000125210EDVALDO SANTOS RODRIGUES                                    1962033028870441504M5EST0120170201403101   000000000000000000000000000000000000000000040000000605
590000126591NILZETE MARIA DOS SANTOS BATISTA                            1962013122641734591F2EST0120170201481004   000000000000000000000000000000000000000000040000000601
590000128389ABELARDO JORGE LESSA LOPES                                  1963051837319124491M2EST0120170201403101CCX010220220726000000000000008130000000000000040000000813
590000128957CARLOS HENRIQUE FEIJO DE CARVALHO                           1962121873768898768M2EST0120170201403101   000000000000000000000000000000000000000000040000000406
590000129205IZABEL LINHARES DE SOUZA                                    1953021011695242149F2EST0120170201480002   000000000000000000000000000000000000000000040000000944
590000130375PAULO ROBERTO PEREIRA DE SOUZA                              1964010476316122772M2EST0120170201403100   000000000000000000000000000000000000000000040000000704
590000130978JOSEMIR GADELHA ALVES                                       1963020122155023391M1EST0820170201403100   000000000000000000000000000002610600000068040000000315
590000130995ALEXANDRE GAMBOGI PELLEGRINI                                1964063056028571687M2EST0120170201403100   000000000000000000000000000000000000000000040000000654
590000131055MARCOS DE SOUZA FERREIRA                                    1961122929444349187M2EST0120170201403100   000000000000000000000000000000000000000000040000000403
590000133622LIDIENIO LIMA DE MENEZES                                    1966051200085487732M2EST0120170201403100FEX010320230912000000000000008490000000000000040000000849
590000133636FRANCISCO DE ASSIS OLIVEIRA CAMPOS                          1962052723440554368M2EST0120170201403100   000000000000000000000000000000000000000000040000000476
590000144094GILDEMIR DA SILVA ARAUJO                                    1966070419670249287M2EST0120170201403100   000000000000000000000000000000000000000000040000000743
590000144135EDUARDO FORTES DA SILVA                                     1964101105726876806M1EST0120170201403100   000000000000000000000000000004920000000016440000000315
590000144258VICENTE DE PAULA DOS SANTOS DA SILVA                        1951012104799852272M1EST0120170201403100   000000000000000000000000000000000000000000040000000888
590000144366JORGE AUGUSTO MAIA MACHADO                                  1966032324051136272M2EST0120170201403100FEX011320230406202310020000005930000000000000040000000593
590000144369CESAR AUGUSTO DIAS                                          1954022536341363753M1EST0120170201403100FEX010520220726000000000000005960000000000000040000000596
590000144376IVAN JADOVSKI                                               1964032441497520010M2EST0120170201403100   000000000000000000000000000000000000000000040000000485
590000144550JARI BELLAVER MONTEIRO                                      1964071946608630000M2EST0120170201403100   000000000000000000000000000000000000000000040000000723
590000144590CLAUDIO ALVARES SABATINI                                    1968010897567744791M2EST0120170201403100   000000000000000000000000000000000000000000040000000703
590000144655PAULO BATISTA MACHADO                                       1959101932926774672M2EST0120170201403100   000000000000000000000000000000000000000000040000000811
590000145694MARIA DE FATIMA REZENDE                                     1967091863001918691F2EST0120170201403100FEX021020220726000000000000005310000000000000040000000531
590000146748ROGERIO HONORATO TORRES                                     1966031046798897487M2EST0120170201403100FGR000120190201201910080000006710000000000000040000000526
590000147565CLAUDIO TORQUATO DA SILVA                                   1969032741628101172M3EST0120170201403100FEX011720230124000000000000003200000000000000040000000320
590000148732JOSE ROBERTO SANTOS MABONI                                  1971082220110138287M2EST0120170201403100   000000000000000000000000000000000000000000040000000717
590000149921MAURICIO GOBATI RAMOS                                       1972031416994346897M2EST0120170201403100   000000000000000000000000000000000000000000040000000751
590000160474DENILSON CORNELIO ROSA                                      1966063037608339187M2EST0120170201403100   000000000000000000000000000000000000000000040000000469
590000161306HENRIQUE JOSE DE ARAUJO                                     1967031539938522149M2EST0120170201403101   000000000000000000000000000000000000000000040000000447
590000357193ESTEMIR ROGELSON DOS SANTOS GOULART                         1966010644976410072M1EST0120170201403100FEX010720220726202210110000003980000000000000040000000724
590000357362RUDINEI DOS SANTOS MARQUES                                  1969022855264590044M2EST0120170201403100   000000000000000000000000000000000000000000040000000722
590000377558PAULO DOMINGOS CORREA JUNIOR                                1963041774018060700M2EST0120170201403100   000000000000000000000000000000000000000000040000000704
590000383631NILO MARTINS DE LUCENA                                      1961021823614900487M2EST0120170201403100   000000000000000000000000000000000000000000040000000506
590000385002ANTONIO DUARTE DE LIMA JUNIOR                               1964100252154505449M2EST0120170201403100   000000000000000000000000000000000000000000040000000908
590000404945DEBORA QUEIROZ AFONSO                                       1962062831647391172F2EST0120170201403100FEX011320230224000000000000004970000000000000040000000497
590000446514ANDRE MARCELO GUSMAO TAVARES DE OLIVEIRA                    1967070628614119100M2EST0120170201403100   000000000000000000000000000000000000000000040000000792
590000446921LUCIENE MORAES DE OLIVEIRA                                  1963121254076005600F4EST0120170201403100   000000000000000000000000000000000000000000040000000315
590000447651LAURO CESAR DE VASCONCELOS                                  1962090628731204104M2EST0120170201403100   000000000000000000000000000000000000000000040000000392
590000455304VICTOR HUGO CRISTALDO                                       1962053029828392100M4EST0120170201403100   000000000000000000000000000000000000000000040000000612
590000455963IDALBERTO GARCIA EUZEBIO                                    1965042524915475115M2EST0120170201403101   000000000000000000000000000000000000000000040000000361
590000465471DAMASIO ALVES LINHARES NETO                                 1966111344372310153M2EST0820170201403100   000000000000000000000000000004011500000084840000000315
590000483991ARANTES JOSE DA SILVA                                       1965031127602230191M2EST0820170201403100   000000000000000000000000000004011500000002840000000315
590000660739FRANCISCO ALVES MOREIRA                                     1963112923968869168M2EST0120170201403100FPE101420170201201712290000002430000000000000040000000974
590000708410EDIVALDO MARTINS NOBRE                                      1964093019965257272M2EST0120170201481175FEX010220220726000000000000008560000000000000040000000856
590000709048JOSEMAR COSTA DA SILVA                                      1966110516411323291M2EST0120170201481262   000000000000000000000000000000000000000000040000000741
590000715465MARIA ESMERALDA RODRIGUES                                   1964071818292259287F2EST0120170201403100FEX011320231010000000000000005930000000000000040000000593
590000749300JOSE MARIA SILVA FERREIRA FILHO                             1961090125818007391M1EST0120170201481334   000000000000000000000000000000000000000000040000000837
590000877806MARCELO ROBERTO MACHADO ALVES                               1963010486959638704M4EST0120170201403100   000000000000000000000000000000000000000000040000000469
590000914241LUIS AMERICO MARTINS SOARES                                 1964050980697836720M1EST0120170201403100   000000000000000000000000000000000000000000040000000706
590000958598ARYVALDO SANTOS PEREIRA                                     1964110585196878734M2EST0120170201403101   000000000000000000000000000007000000000063940000000315
590000958685MURILO CORREA FREIRE MENDES                                 1956092644852452768M4EST0120170201403101   000000000000000000000000000007000000000153140000000315
590000958696CELSO LUIZ FERNANDES                                        1959030463185814720M2EST0120170201403101   000000000000000000000000000007000000000082140000000315
590000958698SERGIO LUIZ PEREIRA MELLO                                   1962082174868063715M2EST0120170201403101   000000000000000000000000000007000000000153040000000315
590000958729ANTONIO JOSE DANTAS DE MEDEIROS                             1965011286565095787M2EST0120170201403101   000000000000000000000000000000000000000000040000000510
590000968110SEVERINO JANUARIO DA SILVA                                  1956092340545180791M1EST0120170201403100   000000000000000000000000000007000000000063140000000315
590000985506MARIO CELIO DA SILVA                                        1965050566171024953M2EST0120170201403100   000000000000000000000000000000000000000000040000000743
590000985665PAULO HENRIQUE NINKE DE ARAUJO                              1971112001998764796M2EST0120170201403101   000000000000000000000000000000000000000000040000000831
590000985668KARLA FERNANDA RODRIGUES LUGON                              1969080747163291191F4EST0120170201403100   000000000000000000000000000000000000000000040000000400
590000985877WLADIMIR BRAIDOTTI                                          1963012633176744153M2EST0120170201403100   000000000000000000000000000000000000000000040000000627
590000986028ANDREA MENEZES DE ARAGAO ALMEIDA                            1971021553315952515F2EST0120170201403101   000000000000000000000000000000000000000000040000000853
590000986033CLAUDIO CHAVES MOREIRA                                      1971080651808986172M2EST0120170201403100   000000000000000000000000000000000000000000040000000626
590000986803FRANCISCO JOSE DIAS BEZERRA                                 1959121515342956315M2EST0120170201403101   000000000000000000000000000000000000000000040000000861
590000987103VALDIR UCHOA RIBEIRO JUNIOR                                 1966041638037319334M2EST0120170201403100   000000000000000000000000000000000000000000040000000466
590000987134MANOEL GOMES MARCIAPE NETO                                  1968122068542976487M2EST0820170201403101   000000000000000000000000000002644301400000040000000758
590000987495CESAR MARMORE RIOS MOTA                                     1971070969411131620M4EST0820170201403100   000000000000000000000000000002011400000023840000000315
590000987533HENRIQUE BARROS PEREIRA RAMOS                               1968101695491597791M2EST0820170201403101   000000000000000000000000000004920000000016340000000315
590000987579ZOROASTRO NUNES                                             1973071256385048187M4EST0120170201403101   000000000000000000000000000000000000000000040000000861
590000987597JOAO PEREIRA DE JESUS                                       1968122762147366587M2EST0120170201403101   000000000000000000000000000000000000000000040000000601
590000987607JOSE RENATO PIMENTEL BAPTISTA                               1970030555347436115M1EST0820170201403101   000000000000000000000000000004011600000124340000000315
590000987999CARMEM LUIZA E SILVA NASCIMENTO                             1973022848203114334F1EST0120170201403101FEX010520220726000000000000006960000000000000040000000696
590000988037JOSE MARIA GOMES DE OLIVEIRA FILHO                          1974022367334504372M2EST0120170201403100FEX010220220726202209190000008020000000000000040000000802
590000988064ERISON PASSOS DE MORAES                                     1971012067891802491M2EST0120170201403101   000000000000000000000000000000000000000000040000000582
590000988166MAURO RONI LOPES DA COSTA                                   1968051852822613087M2EST0820170201403101   000000000000000000000000000000000000000000040000000722
590000988289MARCELO GOMES BRAGA                                         1967121954095000678M1EST0120170201403100FEX010220230807000000000000008300000000000000040000000830
590000988779ANDRE ALVES PEREIRA DE MELO                                 1971042859464046449M2EST0820170201403101   000000000000000000000000000002624800000038440000000315
590000989085PAULO ROBERTO DE ARAUJO RAMOS                               1962011719833083315M2EST0120170201403100FEX010420220822000000000000008380000000000000040000000838
590000990042EUGENIA JOEYMA FERNANDES DE HOLANDA                         1975050467342531391F2EST0120170201403100   000000000000000000000000000000000000000000040000000456
590000990399SEBASTIAO WILSON OLIVEIRA                                   1956061113203436434M2EST0120170201403101   000000000000000000000000000000000000000000040000000696
590000990431ELIEZER AVILA DE LIMA                                       1963061033452830420M4EST0120170201403100   000000000000000000000000000000000000000000040000000742
590000990804GERALDO ANTONIO SILVA DE OLIVEIRA                           1972073055480594168M2EST0120170201403100   000000000000000000000000000000000000000000040000000648
590000990900CLAUDEMIR EDSON DE OLIVEIRA                                 1967040407908441840M1EST0120170201403100FEX010720220726000000000000007510000000000000040000000751
590000991234ANDRE LUIZ AMORIM DE MEDEIROS                               1971070957355819100M1EST0120170201403101   000000000000000000000000000000000000000000040000000673
590000991240PATRICIA MENDES RIBEIRO                                     1968120539437264368F2EST0120170201403100FEX010720230517000000000000004040000000000000040000000404
590000991745ROBERTO CARLOS ANDRADE                                      1965102407241388895M1EST0820170201403100   000000000000000000000000000002130000000001140000000315
590000992601JOSE ANTONIO MEYER PIRES JUNIOR                             1970042280512410615M1EST0820170201403100   000000000000000000000000000004520800000042940000000315
590000992717LIDIO GOMES BARBOSA NETO                                    1964122141648102468M2EST0120170201403101   000000000000000000000000000000000000000000040000000613
590000992720LUCIANO ROCHA SILVA                                         1965011936903191534M2EST0120170201403100   000000000000000000000000000004011500000002840000000315
590000992759FRANCISCO JOSE MAIA GADELHA                                 1969012546354972320M2EST0120170201403100CCX010220220726000000000000008010000000000000040000000801
590000994216ANA MARIA DA SILVA UNGARETTI                                1967012107532640809F1EST0120170201403101   000000000000000000000000000000000000000000040000000916
590000995008AGOSTINHO ROCHA JUNIOR                                      1959112528425073634M4EST0120170201403100   000000000000000000000000000000000000000000040000000658
590000996169FLAVIO CASTANHEIRA CRUVINEL                                 1972062256674180106M2EST0120170201403100   000000000000000000000000000000000000000000040000000626
590000997487ADRIANA CAVALCANTE VERAS                                    1968090548078298315F1EST0120170201403100   000000000000000000000000000000000000000000040000000610
590000998809AMARILDO NASCIMENTO DO SACRAMENTO                           1963120328450817587M2EST0120170201403101   000000000000000000000000000000000000000000040000000750
590000998846ANTONIO EDMILSON SILVA JUNIOR                               1965052229355656300M4EST0120170201403100   000000000000000000000000000000000000000000040000000612
590000998916JOSE CLAUDIO FALCAO SOARES                                  1963051923481439334M2EST0120170201403100   000000000000000000000000000000000000000000040000000410
590000999568SERGIO MAURICIO STABILI DA SILVA                            1966061348150568468M1EST0120170201403101   000000000000000000000000000000000000000000040000000892
590000999713MARCIO CLAYTON MOREIRA MOURA                                1972041085286346472M2EST0120170201403100   000000000000000000000000000000000000000000040000000801
590001000663ADRIANO MARQUES PEIXOTO                                     1973092963339587191M4EST0120170201403101FGR000120200506202110050000006300000000000000040000000841
590001000681MARA LUCIA DE SOUZA RESENDE                                 1952111413240684187F2EST0120170201403100   000000000000000000000000000000000000000000040000000510
590001000848ROBERVAL BANDEIRA DE QUEIROZ                                1963071233745641434M1EST0120170201403101   000000000000000000000000000000000000000000040000000687
590001001609CARLOS EDUARDO MONTEIRO BELLO                               1964030578567980763M2EST0120170201403100   000000000000000000000000000000000000000000040000000442
590001002296JOSE RICARDO MARTINS GRANJA                                 1966112132391625391M2EST0120170201403100   000000000000000000000000000000000000000000040000000850
590001002431GABRIEL BELCHIOR NAVARRO                                    1983111100164400303M2EST0120170201403100FEX010520230323000000000000006720000000000000040000000672
590001003348EVALDO DA SILVA RIBEIRO                                     1968032570374597472M2EST0820170201403100   000000000000000000000000000000000000000000040000000315
590001004153MARCOS LUIZ MANZOCHI                                        1963022813111542807M2EST0820170201403100   000000000000000000000000000002041501112000040000000315
590001004663JOSE ROBERTO DA SILVA                                       1960082148577065634M2EST0120170201403100   000000000000000000000000000000000000000000040000000459
590001004740PAULO HENRIQUE FERREIRA UTSCH                               1968010163956195604M1EST0120170201403101   000000000000000000000000000000000000000000040000000379
590001004757ADALBERTO CARVALHO PINTO                                    1969092437208926387M1EST0120170201403100   000000000000000000000000000000000000000000040000000318
590001006927FRANCISCO AUGUSTO FAZIONATO PEREIRA                         1959052533274070610M2EST0120170201403101FPE101120190731202009080000006800000000000000040000000681
590001022042CLOVIS DE HOLANDA BESSA                                     1971102243518648349M2EST0120170201403100FGR000320170201201801300000002300000000000000040000000515
590001022070VERUSKA CAMPOS                                              1974081647772611153F1EST0820170201403101   000000000000000000000000000002610600000068640000000315
590001022071HILTON SOUZA COSTA JUNIOR                                   1965030740448479591M1EST0120170201403100   000000000000000000000000000000000000000000040000000602
590001022122MARCIA DA ROSA PEREIRA                                      1967071268057792000F2EST0820170201403100   000000000000000000000000000003800000000005040000000315
590001022153DEOLINDO PEDRO DE AQUINO FILHO                              1956113010162860404M2EST0120170201403100CCX010220220726000000000000008220000000000000040000000822
590001022158LUCIO OLIVEIRA DA CONCEICAO                                 1970091201871653789M2EST0120170201403101   000000000000000000000000000000000000000000040000000581
590001022538LUIS CARLOS DE CASTRO BARROSO                               1962112045499136653M2EST0120170201403100   000000000000000000000000000000000000000000040000000315
590001026205WILLIAM MIRANDA DE MELLO                                    1970060395514988791M2EST0120170201403101   000000000000000000000000000000000000000000040000000404
590001028788AMANDA ANTONELLI MONTALVAO LIMA                             1987042500424672170F2EST0120170201403100FPE101120190201202112280000005270000000000000040000000506
590001029073KAROLINI SOUZA BARBOSA DE SA                                1986121901392601100F1EST0120170201403100   000000000000000000000000000000000000000000040000000925
590001035768JOSE ADAO DA SILVA                                          1969012861141003449M2EST0820170201403101   000000000000000000000000000005520000000010840000000315
590001036214FRANK VAN RIKARD SANTOS DA SILVA                            1988071291873584253M2EST0820170201403100   000000000000000000000000000004220700000001040000000315
590001039523ANA ELIZABETH DE ALENCAR OHI                                1960041629013488153F2EST0120170201403100   000000000000000000000000000000000000000000040000000610
590001039544HELIO DE SOUSA                                              1967122833426937115M2EST0120170201403100   000000000000000000000000000000000000000000040000000404
590001040593ELY SANDRO DE OLIVEIRA SANDES                               1966070837325930100M2EST0120170201403100   000000000000000000000000000000000000000000040000000460
590001040725MARCELO PALUMA AMBROZIO                                     1969070100955830761M2EST0120170201403100FGR000120190202202202070000007130000000000000040000000504
590001041381RODRIGO HITOSHI DIAS                                        1982072197868434104M2EST0120170201403100FEX031320220727000000000000004220000000000000040000000422
590001041461MARCELO DIAS CAMPOS                                         1966121478158001734M4EST0820170201403100   000000000000000000000000000002010100000285840000000315
590001041495ROGERIO PICANCO BANHOS                                      1969111135973978320M2EST0120170201403100FPE101220190430202004160000004100000000000000040000000549
590001042405MARIO PACCACINI DA COSTA                                    1962042651492628620M2EST0120170201403100   000000000000000000000000000000000000000000040000000403
590001044420ANDRE LUIZ SILVA LOPES                                      1974072746455108353M2EST0820170201403100   000000000000000000000000000002010100000261340000000315
590001047468SARA ESTEFANIA VIEIRA RODRIGUES                             1974102675922754149F2EST0120170201403101   000000000000000000000000000000000000000000040000000339
590001047794JUVENCIO PAULO DE VILHENA E SOUSA NETO                      1966070446021531515M1EST0120170201403100   000000000000000000000000000000000000000000040000000605
590001048596SILAS RODRIGUES VIEIRA                                      1966022432270216334M2EST0120170201403100   000000000000000000000000000000000000000000040000000612
590001048937CLAUDIO MOACIR MARQUES CORREA                               1967081452978575034M2EST0820170201403100   000000000000000000000000000002624400000317340000000722
590001049052CRISTIANE AGUIAR XIMENES                                    1975010152520706368F2EST0120170201403100FPE101120200422202106300000006100000000000000040000000611
590001049405ADRIANO MAGALHAES BIZARRIA                                  1968111846165371353M2EST0120170201403100FEX010520230313000000000000006120000000000000040000000612
590001049407CARLOS ESCOSSIA BARBOSA JUNIOR                              1961060620260202304M2EST0120170201403100   000000000000000000000000000000000000000000040000000610
590001049574ANDERSON BAPTISTA                                           1972072902753144729M2EST0120170201481004   000000000000000000000000000000000000000000040000000839
590001049819SERGIO FRANCA BARIGCHUN                                     1969092055986668553M2EST0120170201403101   000000000000000000000000000000000000000000040000000602
590001049954HENRIQUE FLEIUSS CARNEIRO PRADO                             1960100137597248687M2EST0120170201403100   000000000000000000000000000000000000000000040000000708
590001049974ROBERTO CORREA DE SOUZA FILHO                               1965042881239955715M2EST0120170201403100   000000000000000000000000000000000000000000040000000743
590001050237SANDRA INSERTI SIMAO                                        1967021594661596668F2EST0120170201403100   000000000000000000000000000000000000000000040000000682
590001050721JOSIVAN ANIZIO DA SILVA                                     1973112282616094487M2EST0120170201403100   000000000000000000000000000000000000000000040000000672
590001050744ALEXANDRE LANDIM FIALHO                                     1966040951262916100M2EST0120170201403100   000000000000000000000000000000000000000000040000000613
590001050980JASPERS JORGE RODRIGUES AMORIM                              1975030268675356315M4EST0120170201403100   000000000000000000000000000000000000000000040000000633
590001052112ROGERIO XAVIER ROCHA                                        1973040964788881187M2EST0820170201403100   000000000000000000000000000003300000000179440000000315
590001052336NADJA SARAIVA LOPES CHAVES                                  1969123138974959372F2EST0120170201403100   000000000000000000000000000000000000000000040000000610
590001052351ADRIANA MARIA DE SOUSA                                      1967071931410090310F2EST0120170201403100   000000000000000000000000000000000000000000040000000410
590001054369MARCO TULIO BERNARDES FONSECA                               1964100831768164134M2EST0820170201403100   000000000000000000000000000002010100000300940000000315
590001056017EMILIO FREITAS TERRAZA                                      1958090721441588191M2EST0120170201403100   000000000000000000000000000003500000000067040000000315
590001056035PEDRO PINHEIRO CARDOSO                                      1968042338664267120M2EST0820170201403100   000000000000000000000000000002010100000027840000000315
590001057286ADRIANO ANTONIO ROBERTO OLIVEIRA MACHADO                    1973060346044787320M2EST0120170201403101FGR000320211008202201100000006320000000000000040000000838
590001057309MARCOS AZIZE SOARES                                         1971100338425289220M1EST0120170201403100   000000000000000000000000000000000000000000040000000596
590001061653SEVERINO SOUZA DE QUEIROZ                                   1972041275349892487M1EST0820170201403100   000000000000000000000000000002644302300000040000000671
590001062940MARIA ALICE DO REGO NERY MOURA                              1971120447441437334F2EST0120170201403101   000000000000000000000000000000000000000000040000000798
590001063598ELANE CRISTINA NUNES FIEL DE PAULA                          1975072957951705268F2EST0120170201403100FGR000320170201201708020000002590000000000000040000000807
590001068608LORENA SCHIAVON NUNES                                       1972091569096376072F2EST0120170201403100   000000000000000000000000000000000000000000040000000943
590001069923CONCEICAO POLICARPO CORREIA MOURAO DE OLIVEIRA              1974030271530584434F2EST0120170201403100FEX011320230303000000000000006860000000000000040000000686
590001072698PEDRO ALBERTO LIMA JUNIOR                                   1970071737633767120M2EST0120170201403100   000000000000000000000000000000000000000000040000000335
590001081005ALEX FABIANO NOGUEIRA SOARES                                1974091769530467320M2EST0120170201403100FEX010520220726000000000000006130000000000000040000000613
590001086118ADRIANA CLAUDIA REIS DOS SANTOS                             1968091896236183791F2EST0120170201403100FEX010720220726000000000000007050000000000000040000000705
590001087272JOSE LUCIANO PACHECO DE FREITAS FILHO                       1971051249077660178M4EST0120170201403101   000000000000000000000000000000000000000000040000000465
590001091274GISELE SANTOS OLEGARIO DO NASCIMENTO                        1974111371549153587F2EST0120170201403101   000000000000000000000000000000000000000000040000000465
590001091697SERGIO ALBERTO DE FIGUEIREDO                                1966112429775302153M4EST0120170201481026   000000000000000000000000000000000000000000040000000333
590001096259LUCIANO RAMALHO SANTOS                                      1974072460159952549M2EST0120170201403100   000000000000000000000000000000000000000000040000000873
590001096615FABIO DA SILVA ARAUJO                                       1971020765838866420M5EST0120170201403100FEX011320220726000000000000007490000000000000040000000749
590001096880PATRICIA FERREIRA E SILVA GOMES DE SOUZA                    1971111768344643520F2EST0120170201403101   000000000000000000000000000000000000000000040000000384
590001096938LUIZ ROBERTO BARBOSA TORRES                                 1960052028493222100M2EST0120170201403100   000000000000000000000000000003500000000067140000000315
590001096941ROSANE LEMOS DA SILVA                                       1970052358480803134F2EST0120170201403101   000000000000000000000000000000000000000000040000000437
590001096942NOEMIA SILVA MONTEIRO                                       1970021046178864191F2EST0120170201480087FEX011020220726000000000000003420000000000000040000000342
590001096970IZAURA MARIA SANTOS CRUZ                                    1971011306939739785F4EST0120170201403100   000000000000000000000000000000000000000000040000000331
590001097081ADRIANA BATISTA OLIVEIRA PEIXOTO                            1969030437610864153F2EST0820170201403101   000000000000000000000000000002010100000236740000000315
590001097106DORVAL AUGUSTO LUIZ DOS SANTOS                              1969072138535564187M2EST0120170201403100   000000000000000000000000000000000000000000040000000681
590001097148ANDRE LUIZ PEIXOTO ROMER                                    1974010664775380168M2EST0120170201403101   000000000000000000000000000000000000000000040000000537
590001097222GERMANO DE OLIVEIRA FARIAS                                  1970091000008806713M2EST0820170201403100   000000000000000000000000000002629800000009640000000315
590001097278ELAINE SARAIVA MUNDIM                                       1970020349808257100F2EST0120170201403101   000000000000000000000000000000000000000000040000000922
590001097281CLEBER TAKAMITI NISHIKAWA                                   1972093056112270153M2EST0820170201403100   000000000000000000000000000004011500000003040000000315
590001097325ISLANE RIBEIRO FEITOZA                                      1969052926951339104F1EST0120170201403100FEX010520220726000000000000006270000000000000040000000627
590001097326CARLOS VINICIUS FERREIRA DA SILVA                           1971030956340974104M2EST0120170201403101   000000000000000000000000000000000000000000040000000465
590001097328MIGUEL MAURICIO KURILO                                      1972092738928124204M2EST0120170201403101FEX011320220726202302160000007300000000000000040000000866
590001097341AECIO GASPAROTO MOREIRA                                     1976061020171737890M2EST0120170201403101FEX010620220726202301240000009290000000000000040000000970
590001097350CARLA BAKSYS PINTO                                          1974122666634644187F2EST0120170201403101FEX011320231106000000000000009740000000000000040000000974
590001097362AURELIANO VOGADO RODRIGUES JUNIOR                           1975061061960390163M1EST0820170201403101   000000000000000000000000000005520000000005040000000315
590001097365VALTER DE SOUSA MATOS                                       1964111645049696615M2EST0820170201403101   000000000000000000000000000004110000000019340000000315
590001097416TICIANA ALVES SOARES                                        1969072531449409334F4EST0120170201403100   000000000000000000000000000000000000000000040000000611
590001097433MARCELO DE BRITO VIDAL                                      1972021056488750100M2EST0120170201403100FEX011320230314000000000000005370000000000000040000000537
590001097458RENATO BARBOSA MEDEIROS                                     1972022151010119168M2EST0120170201403100FEX011320220726202302060000006240000000000000040000000625
590001097467BEATRIZ BERNARDES RIBEIRO                                   1969110938098539172F2EST0120170201403100   000000000000000000000000000000000000000000040000000490
590001097482KIYOSHI ADACHI                                              1959072902819568807M2EST0120170201403100   000000000000000000000000000000000000000000040000000471
590001097491DANIEL XAVIER LARA                                          1975102468858400178M1EST0820170201403101   000000000000000000000000000001500000005607440000000315
590001097560ISAC ELIAS DE ASSIS JUNIOR                                  1975021164579662172M2EST0120170201403101   000000000000000000000000000000000000000000040000000416
590001097573LUIZ CLAUDIO DE FREITAS                                     1972102384712104600M2EST0820170201403100   000000000000000000000000000000000000000000040000000315
590001097586RODRIGO BENDER MOREIRA                                      1975101188986438020M4EST0120170201403100   000000000000000000000000000000000000000000040000000664
590001097702VAGNER DE SOUZA LUCIANO                                     1972012347342048100M4EST0120170201403101   000000000000000000000000000000000000000000040000000494
590001097748CRISTIANO SAMPAIO BRIGIDO                                   1973041756323620197M1EST0120170201403101FEX011020220726202301240000008960000000000000040000000970
590001097751ANTONIO CARLOS WOSGRAU                                      1973081690663772915M2EST0120170201403101   000000000000000000000000000000000000000000040000000999
590001097784GISELE DE MELO MAEDA MENDANHA                               1974050951487098120F2EST0120170201403101CCX011520230209202308220000003180000000000000040000000318
590001097807SILVESTRE ERNANI DE GOES MONTEIRO CABRAL                    1968083048175048549M2EST0120170201403101   000000000000000000000000000000000000000000040000000836
590001097837SERGIO ANTONIO NOGUEIRA DA CRUZ SALDANHA                    1970101655392741134M2EST0820170201403100   000000000000000000000000000008110000000021040000000315
590001098122ANA CLAUDIA ZARAT TAVARES                                   1972061557954178153F2EST0120170201403101   000000000000000000000000000000000000000000040000000482
590001098131SAMMYA KRISHNA RUTH DE SOUZA LEAO BARBOSA                   1973122244619758272F2EST0120170201403101   000000000000000000000000000000000000000000040000000626
590001098152MARIA GIZELIA DE FREITAS BONFIM                             1975052578385725172F2EST0120170201403101   000000000000000000000000000000000000000000040000000380
590001098185JEHOVANA STEMLER DE OLIVEIRA                                1963092844414340144F1EST0120170201403101   000000000000000000000000000000000000000000040000000330
590001098196MAURO BARBOSA DA SILVA                                      1966010337029029100M2EST0820170201403100   000000000000000000000000000000000000000000040000000315
590001098204ALESSANDRA FELIPE BEZERRA PEDROZA                           1974030554126770372F2EST0120170201403101   000000000000000000000000000000000000000000040000000611
590001098214EDUARDO RIBEIRO                                             1974052275970856134M2EST0820170201403101   000000000000000000000000000004920000000016440000000315
590001098218MARIA DA PENHA BARBOSA DA CRUZ                              1964052623998881115F3EST0820170201403100   000000000000000000000000000001750000000253840000000315
590001098320GASPAR SILVA LIMA                                           1973082447112182387M2EST0120170201403101   000000000000000000000000000000000000000000040000000406
590001098357LUCIO LUCAS PINTO                                           1965042941024788172M2EST0120170201403100   000000000000000000000000000003500000000067240000000315
590001098431DENISE MATTOS BARBOSA                                       1968090785069051687F4EST0120170201403100   000000000000000000000000000000000000000000040000000658
590001098467ANA CLAUDIA DE LIMA GOMES                                   1968090647218118100F2EST0120170201403100   000000000000000000000000000000000000000000040000000626
590001098468ANDREIA RODRIGUES DE ANDRADE                                1970062539317358187F2EST0120170201403100   000000000000000000000000000000000000000000040000000680
590001098503LUCIANA DOS SANTOS BRANDAO                                  1973030157862680120F2EST0120170201403100FPE101320190202201910110000003420000000000000040000000340
590001098519JUSSARA SANTOS MENDES                                       1973031859902701191F4EST0820170201403101   000000000000000000000000000000000000000000040000000315
590001098526FRANCINALDO DOS SANTOS ROSADO                               1970042500779281721M5EST0120170201403100   000000000000000000000000000000000000000000040000000618
590001098551JOSE MARCELO CASTRO DE CARVALHO                             1970111951256860182M2EST0820170201403100   000000000000000000000000000000000000000000040000000315
590001098717ROSEMARY ZUCARELI                                           1966040553887158687F4EST0120170201403100FGR000120191114202102080000007450000000000000040000000859
590001098732DALTON ROCHA PINHEIRO                                       1970041837320254115M4EST0120170201403101   000000000000000000000000000000000000000000040000000841
590001098741CARLA IGINA OLIVEIRA CARNEIRO                               1969071448306916115F2EST0120170201403100   000000000000000000000000000000000000000000040000000416
590001098757RAQUEL NASCIMENTO PEREIRA                                   1967100120946007268F2EST0120170201403100   000000000000000000000000000000000000000000040000000465
590001098775LUIZ AUGUSTO VIEIRA SILVA                                   1963060534801650104M1EST0120170201403101   000000000000000000000000000000000000000000040000000601
590001098831HELIANE BERTULUCCI FERNANDES                                1969060340069290130F2EST0120170201403100   000000000000000000000000000000000000000000040000000596
590001098875GEORGE FRANK SANTANA DA SILVA                               1974101856369743372M2EST0120170201403101   000000000000000000000000000000000000000000040000000633
590001099038JOSE FIRMINO DE ALMEIDA                                     1968102655133797591M2EST0120170201403101FGR000120190201202108020000006050000000000000040000000603
590001099041RACHEL SANTANA SILVA                                        1968102946780181153F4EST0120170201403101   000000000000000000000000000000000000000000040000000626
590001099050ROGERIO VIEIRA RIVETTI                                      1968041544343566153M2EST0120170201403100   000000000000000000000000000000000000000000040000000492
590001099051KATIA ELIANE BARBOSA GENTIL                                 1971020353238192191F1EST0120170201403100   000000000000000000000000000000000000000000040000000416
590001099117MARCO ANTONIO BISPO CORDEIRO                                1970011252418960153M2EST0120170201403101   000000000000000000000000000000000000000000040000000451
590001099140ANDRESSA DE CASTRO DEL ESPOSTI MAZZOCO                      1973070303145507710F2EST0120170201403101   000000000000000000000000000000000000000000030000000974
590001099198HAMILTON PIRES DE AZEVEDO                                   1967072941759389153M2EST0120170201403101   000000000000000000000000000000000000000000040000000679
590001099223RENATO DE SOUSA MARQUES                                     1969102450434160172M1EST0120170201403100   000000000000000000000000000000000000000000030000000456
590001099270KATIA MARIA OLIVEIRA ARAGAO                                 1968091335610450306F2EST0120170201403100   000000000000000000000000000000000000000000040000000613
590001099446MARIA ELENI DA COSTA MELO                                   1966031836678821149F1EST0120170201403101   000000000000000000000000000000000000000000040000000342
590001099552FRANCISCO MEDEIROS PEIXOTO                                  1964021628783220100M1EST0120170201403101   000000000000000000000000000000000000000000040000000475
590001099653ROGERIO GOULART BARBOZA                                     1965090331755828187M2EST0120170201403100   000000000000000000000000000000000000000000040000000490
590001099659LIANA COSTA DA SILVA FREIRE                                 1964080257601666115F1EST0120170201403101   000000000000000000000000000000000000000000040000000406
590001099687KEIKO NAKAYOSHI                                             1975112778000270153F4EST0120170201403101FEX010720220726202301240000005160000000000000040000000492
590001099965STANLEY SA DE CARVALHO                                      1975010358572147349M2EST0120170201403101   000000000000000000000000000000000000000000040000000633
590001099973RENATA ALVES DE FIGUEIREDO                                  1975112779699723149F2EST0120170201403100FEX011520230124000000000000005450000000000000040000000545
590001099988JOSENILDO FERREIRA DIAS                                     1972031751206536187M2EST0120170201403101   000000000000000000000000000000000000000000040000000339
590001100060PAULO EDUARDO LIRA MORAES                                   1969052977192893153M2EST0120170201403101CCX010220220726000000000000008650000000000000040000000865
590001100147LUCIANO AUGUSTO FLORENTINO                                  1971082258596160159M1EST0120170201403101   000000000000000000000000000000000000000000040000000836
590001100249RICARDO SOBREIRA BEZERRA                                    1967080442801052434M4EST0120170201403100   000000000000000000000000000000000000000000040000000813
590001100264CLAUDIO DA SILVA BULAD                                      1970010852423751168M2EST0120170201403100   000000000000000000000000000000000000000000040000000628
590001100269SILVIO ATTILA PAIVA SALES                                   1966101530250846349M5EST0120170201403100FEX010520220726000000000000006100000000000000040000000610
590001100271JOSE CARLOS DA FONSECA                                      1960112564129810634M2EST0120170201403100   000000000000000000000000000000000000000000040000000396
590001100273ANTONIO DE PADUA BEVILAQUA DE SALES                         1966010233744351300M2EST0120170201403101   000000000000000000000000000000000000000000040000000696
590001100344ANA PAULA DE BARROS MAWAD                                   1971070159469803434F2EST0120170201403100   000000000000000000000000000000000000000000040000000704
590001100881CINTIA LAGO MEIRELES                                        1971031955400388191F2EST0120170201403100   000000000000000000000000000000000000000000040000000680
590001101430CRISTINA MARSOL MURCIA DE ALBUQUERQUE                       1958012814967839487F2EST0120170201403100FPE101120190201202003090000006900000000000000040000000813
590001101668DANIELLE NERI FAZZA                                         1975112779350496100F1EST0120170201403101   000000000000000000000000000000000000000000040000000554
590001101710WESLEY ALEXANDRE TAVARES                                    1975031177759400187M1EST0820170201403101   000000000000000000000000000005520000000010840000000315
590001101722JOSE GUSTAVO LOPES RORIZ                                    1972050157736634149M4EST0120170201403100FEX011520220726000000000000004550000000000000040000000455
590001101747IRLANDA MARIA RAMOS LOPES                                   1970010338571226334F4EST0120170201403100   000000000000000000000000000000000000000000040000000609
590001101780SANDRA VALERIA KNUST LIRA                                   1971121557317640182F2EST0120170201403100   000000000000000000000000000000000000000000040000000382
590001101781MAXLEY ALEXANDER DE OLIVEIRA                                1974022852703436149M1EST0120170201403101   000000000000000000000000000000000000000000040000000627
590001101787MARIA ELIANE PONTES MENDES                                  1962103121027226353F1EST0120170201403101   000000000000000000000000000000000000000000040000000833
590001101789ROBERTA SANTANA DE ALENCAR                                  1972011839100723304F2EST0120170201403101   000000000000000000000000000000000000000000040000000833
590001101793PATRICIA BARBOSA PONTES                                     1966101235865547100F4EST0120170201403101FGR000220170201201702210000000110000000000000040000000943
590001101882ELIZABETH PEREIRA LEITE SILVA                               1963062510431740879F2EST0120170201403100CCX010220220726000000000000008160000000000000040000000816
590001102071EUGENIA MARIA COSTA SIQUEIRA RAMOS                          1966052627514013334F2EST0120170201403100   000000000000000000000000000000000000000000040000000857
590001102074FERNANDA FAGUNDES DE ANDRADE                                1975030866642833104F2EST0120170201403101FEX021020220726000000000000004220000000000000040000000422
590001102136JANICE DE ALMEIDA MENEZES DOS SANTOS                        1969121547144076191F4EST0820170201403100   000000000000000000000000000001310000000018540000000315
590001102160PAULO CESAR MARTINS SANTANA                                 1966121787031590787M5EST0120170201403100   000000000000000000000000000000000000000000040000000625
590001102433SAMIA SAMPAIO DE OLIVEIRA GESBERT                           1965013022140743334F4EST0120170201403100   000000000000000000000000000000000000000000040000000610
590001102608FERNANDO SAVIO DE SOUSA                                     1970041238864398368M1EST0120170201403100   000000000000000000000000000000000000000000040000000907
590001102614WERBETHI VILAR VIANA                                        1964101240713849487M2EST0120170201403100   000000000000000000000000000000000000000000040000000563
590001102935ROBERTO NICACIO DE CAMARGO BARBOSA                          1965092489334272791M2EST0120170201403101   000000000000000000000000000000000000000000040000000830
590001103904DAMON GONCALVES DE LIMA CASTRO                              1971100340457095253M2EST0820170201403101   000000000000000000000000000004060300000013940000000593
590001104464ALICIO CARDOSO REIS                                         1973100365882555515M2EST0120170201403100   000000000000000000000000000000000000000000040000000602
590001104481CINTIA NASCIMENTO MENEZES                                   1973101562052853120F4EST0120170201403101   000000000000000000000000000004011500000078040000000315
590001104519DAVID LEMOS ROSA                                            1970072851271311100M2EST0120170201403101FEX010520220726000000000000006260000000000000040000000626
590001104591MOISES CARNEIRO DA SILVA                                    1969050171288023472M2EST0120170201403100   000000000000000000000000000000000000000000040000000689
590001104817ISABELLA MACHADO SOARES                                     1976010969006210153F2EST0820170201403101   000000000000000000000000000002520200000003440000000315
590001104887MARIA DA CONCEICAO ANGELICA SANTOS                          1960051415639894334F4EST0120170201403100   000000000000000000000000000000000000000000040000000967
590001104892ROGERIO KLEIN SALLES                                        1965031716208584876M1EST0820170201403100   000000000000000000000000000002420300000012440000000701
590001105354AURIONES CARDOSO D AVILA FILHO                              1968110846347445115M2EST0120170201403101   000000000000000000000000000000000000000000040000000836
590001105628FLAVIA AMARAL SILVA DE SOUSA                                1974040165815874191F2EST0120170201403101FEX011320230131000000000000003260000000000000040000000326
590001106187FERNANDA RASSI RODRIGUES                                    1969120146987339104F1EST0120170201403100   000000000000000000000000000000000000000000040000000628
590001108362MARCUS LOPES MACHADO                                        1972110200095266763M1EST0120170201403101   000000000000000000000000000000000000000000040000000673
590001108373LICIO JOAQUIM DA SILVA REGO                                 1969030642914795149M2EST0820170201403100   000000000000000000000000000002000000000242040000000315
590001108379LILIANE JUREMA LOPES                                        1968040461189456400F1EST0120170201403101FEX010420220726000000000000008210000000000000040000000821
590001109205MANOEL ADELINO DE MEDEIROS FILHO                            1963112929661927120M2EST0120170201403100   000000000000000000000000000000000000000000040000000456
590001113253ALESSANDRO ALVES SALES                                      1970062064722589100M1EST0120170201403101   000000000000000000000000000000000000000000040000000628
590001117778LEONARDO DANTAS DA SILVA                                    1976031102053135409M2EST0820170201403100   000000000000000000000000000004920000000016340000000315
590001124719LEONARDO CABRAL DE BARROS                                   1970062201254875760M2EST0820170201403100   000000000000000000000000000000000000000000040000000701
590001136778BRUNO CAMILO TEIXEIRA                                       1986081301141586142M2EST0120170201403100FEX010720220726000000000000003970000000000000040000000397
590001143594RAMON LUNARDI CAMPOS                                        1974080692405347687M1EST0120170201403100   000000000000000000000000000000000000000000040000000811
590001150511NILBERTO NILSON DE MATOS MENDES                             1972011023331011215M2EST0120170201403101CCX010220221229000000000000008770000000000000040000000877
590001164590KAYO ROBERTO VIEIRA                                         1974032641257324268M2EST0120170201403100FPE101120210601202108310000006730000000000000040000000672
590001167049JOSE FERNANDO DE FARIA LUCENA DANTAS                        1964102529143128149M2EST0120170201403100FEX010720220726000000000000004350000000000000040000000435
590001168857ISA MARY DE CARVALHO LIMA                                   1970081434394370272F4EST0120170201403100FEX011320230227000000000000007650000000000000040000000765
590001168867NUBIA AGUIAR DE SOUZA                                       1972021433652805291F4EST0120170201403101   000000000000000000000000000000000000000000040000000596
590001171119JOSIVAN MOURA DE SA                                         1975090370723001391M2EST0120170201481004   000000000000000000000000000000000000000063240000000632
590001171662SERGIO ANISIO BEZERRA SILVA                                 1976020902219121429M2EST0120170201403100   000000000000000000000000000000000000000000040000000687
590001171805KASSANDRA PEREIRA DE OLIVEIRA                               1971100959015535191F1EST0120170201481004   000000000000000000000000000000000000000000040000000624
590001173626SIMONE GAMA ANDRADE                                         1970080351582023115F1EST0120170201403100FEX011520230612000000000000007930000000000000040000000793
590001177972ANTONIO HELIO PINTO                                         1958011521955522391M2EST0120170201403101   000000000000000000000000000000000000000000040000000664
590001178866VANESSA GOMES PIZZETTI CONSTANTI GEEVERGHESE                1988091400208420150F2EST0120170201403100FEX010720220726000000000000004540000000000000040000000454
590001180767LUCIO FURBINO VILLEFORT                                     1968081695211225791M2EST0120170201403100FGR000320170201201901170000002350000000000000040000000515
590001180914WAGNER EUSTAQUIO CUNHA ALVES                                1961082865822960600M2EST0120170201403100   000000000000000000000000000000000000000000040000000656
590001181070MARCELO CAMPOS DA SILVA                                     1970092266681162487M2EST0120170201403100FEX010520220726000000000000008940000000000000040000000894
590001185117NAIR NAHOMI HIRAI                                           1966110808279289801F2EST0120170201403100   000000000000000000000000000000000000000000040000000753
590001188201ADRIANO AUGUSTO DE SOUZA                                    1972052283921990491M2EST0820170201403100   000000000000000000000000000002644300100000040000000315
590001189838WILSON PEREIRA DE SOUSA                                     1972081374246879304M2EST0120170201403100   000000000000000000000000000000000000000000040000000696
590001198889CLAUDIA LIMA TAGOMORI                                       1970031312613542810F2EST0120170201403100   000000000000000000000000000000000000000000040000000915
590001199833MOACIR RODRIGUES DE OLIVEIRA                                1962040926688859149M2EST0120170201403100   000000000000000000000000000000000000000000040000000526
590001199919CLAYTON MACHADO                                             1965111757470880925M2EST0120170201403101FEX010520220726000000000000006800000000000000040000000680
590001200178LUIS WILSON DA SILVA MOURA                                  1965071625337955349M2EST0120170201403101   000000000000000000000000000000000000000000040000000838
590001200218RICARDO ANDRE MACEDO FONTENELE                              1974081056914504253M2EST0120170201403100   000000000000000000000000000000000000000000040000000475
590001200232ALEX GOMES DA SILVA                                         1972101841294440268M1EST0120170201403100FEX010520230216202311010000005950000000000000040000000595
590001200249CINTIA RIBEIRO PEREIRA SOARES GRILLO                        1974011864762076104F2EST0120170201403100FEX010520220901000000000000006340000000000000040000000634
590001200252CARLOS PORTO JUNIOR                                         1961012916588100310M2EST0120170201403100   000000000000000000000000000000000000000000040000000435
590001200528TATIANA HEIDRICH MENDES                                     1970100167549110000F1EST0120170201403100   000000000000000000000000000000000000000000040000000726
590001200533EDUARDO DE BIAGGI                                           1958122302687762881M2EST0120170201403100   000000000000000000000000000000000000000000040000000679
590001200536ANDREA SOUZA MARTIN                                         1970110373946907091F1EST0120170201403100   000000000000000000000000000000000000000000040000000726
590001200545CARLOS AUGUSTO ROTTA                                        1971061158035800078M2EST0120170201403100   000000000000000000000000000000000000000000040000000871
590001200546SERGIO GONCALVES DE ANDRADE                                 1972090194543550668M2EST0120170201403101   000000000000000000000000000000000000000000040000000679
590001200620MARCOS ANTONIO FERREIRA CALIXTO                             1972050677652410444M2EST0120170201403101   000000000000000000000000000000000000000000040000000581
590001200648FABIO FERNANDES MASSARO                                     1970111462522698087M2EST0120170201403100   000000000000000000000000000000000000000000040000000743
590001200875ROBSON FERREIRA DA SILVA                                    1967022036737186300M1EST0120170201403101   000000000000000000000000000000000000000000040000000609
590001201293SERGIO MASSASHI NAKANISHI                                   1965050553381467972M2EST0120170201403100   000000000000000000000000000000000000000000040000000679
590001201328MARCOS CARVALHO BARRETO                                     1974012865236084504M4EST0120170201403100FEX010420230405000000000000007600000000000000040000000760
590001201346ALAN FABIO ALMEIDA LISA                                     1971011760132027534M2EST0120170201403100   000000000000000000000000000000000000000000040000000760
590001201367ANA PAULA FERNANDES DE SOUZA PALUMA                         1973031599566320744F2EST0120170201403101   000000000000000000000000000000000000000000040000000510
590001201395JOSE CLAUDIMI SANTOS                                        1970060760920980597M2EST0120170201403100   000000000000000000000000000000000000000000040000000863
590001201419MAURO MENEZES SIDRIM                                        1968070126299909234M2EST0120170201403100   000000000000000000000000000000000000000000040000000665
590001201424MARCELO MORAIS DE PAULA                                     1975072656964064249M2EST0120170201403100FEX010320220726000000000000008080000000000000040000000808
590001201506RODRIGO DE BONA DA SILVA                                    1973070363538202087M2EST0820170201403100   000000000000000000000000000000000000000000040000000742
590001201526VALTER ZOTZ JUNIOR                                          1974031976944808072M2EST0120170201403100   000000000000000000000000000000000000000000040000000485
590001201664MARCELO GONCALO DE AMORIM                                   1969051455188133172M2EST0120170201403100FPE101120170201201807040000002540000000000000040000000681
590001201774CLAUDIO PACHECO VILHENA                                     1971013032879121272M2EST0120170201403100   000000000000000000000000000000000000000000040000000476
590001202899LUIZ CLAUDIO GOMES SOARES                                   1963111400240213777M2EST0120170201403100   000000000000000000000000000000000000000000040000000481
590001203006MARCOS PEREIRA DA SILVA FILHO                               1969050133119619353M1EST0120170201403100FEX010520220726000000000000006330000000000000040000000633
590001203223JOSE HENRIQUE PANTALIAO TAVARES                             1962112004779276888M2EST0120170201403100   000000000000000000000000000000000000000000040000000639
590001203356JOSE ARTUR ZARIFE ALVES                                     1968081400110121708M2EST0120170201403100   000000000000000000000000000000000000000000040000000492
590001203932ROMUALDO ANSELMO DOS SANTOS                                 1969052251045362549M2EST0120170201403100FEX011320230327000000000000006010000000000000040000000601
590001204281SERGIO NOGUEIRA SEABRA                                      1969102832814186353M4EST0820170201403100   000000000000000000000000000008110000000021140000000315
590001204431JOSE ADAUTO RESENDE                                         1967031361020567600M4EST0120170201403100   000000000000000000000000000000000000000000040000000811
590001204499ANGELA GOMES                                                1958051638949210991F1EST0820170201403101   000000000000000000000000000001760000000295040000000315
590001204605GABRIEL PIRES DE MORAES                                     1965082845646015049M2EST0120170201403100   000000000000000000000000000000000000000000040000000744
590001204907FRANCISCO TARCISO LEITE JUNIOR                              1969040339169243387M2EST0120170201403100   000000000000000000000000000000000000000000040000000610
590001205361JOSE GERALDO TEIXEIRA SANTIAGO                              1962060849188585620M2EST0120170201403100   000000000000000000000000000000000000000000040000000658
590001205402EDUARDO WYLLIE LACERDA RODRIGUES                            1966101188393976715M4EST0120170201403100   000000000000000000000000000000000000000000040000000726
590001205546LOURENCO FERREIRA DE LIMA                                   1976121583703306149M4EST0120170201403100   000000000000000000000000000000000000000000040000000560
590001205671AQUILES FRICKS RICARDO                                      1971081601719879770M2EST0120170201403100   000000000000000000000000000000000000000000040000000619
590001205710CINTIA EMI NAKAYA OTTA                                      1972052615166320875F2EST0120170201403100   000000000000000000000000000000000000000000040000000466
590001205756REGINILSON AZEVEDO SANTOS                                   1970022091123984549M2EST0120170201403100   000000000000000000000000000000000000000000040000000863
590001206473RODRIGO FERREIRA DE PAULA                                   1973062100403111633M2EST0120170201403100FEX010720220726000000000000006580000000000000040000000658
590001206474GUSTAVO SOARES CRUZ                                         1971111578281873604M2EST0120170201403100FGR000120190208202105270000006610000000000000040000000820
590001206546GEILSON DE CARVALHO LEAO                                    1970060658504516504M2EST0120170201403100   000000000000000000000000000000000000000000040000000863
590001206933FABIO GOUVEIA PAULINO                                       1971080665219970410M2EST0120170201403100   000000000000000000000000000000000000000000040000000892
590001207060RICARDO DINIZ ALVES                                         1966101881462646700M1EST0120170201403100   000000000000000000000000000000000000000000040000000705
590001211010KEILLA EUDOKSA VASCONCELOS LEITE                            1972101784268280430F2EST0120170201403100   000000000000000000000000000000000000000000040000000522
590001214080ALESSANDRA RODRIGUES VIEIRA DE CASTRO                       1971121239979423234F2EST0120170201403100   000000000000000000000000000000000000000000040000000859
590001215193ELAINE NIEHUES FAUSTINO                                     1977041602168802971F3EST0120170201403100   000000000000000000000000000000000000000000040000000892
590001215453LUIZ FERREIRA LEITE                                         1963112527505189387M2EST0120170201403101FEX010520220726000000000000007660000000000000040000000766
590001215473CLAUDIA MARIA JOTA DA SILVA                                 1973012547349387334F1EST0120170201403101   000000000000000000000000000000000000000000040000000818
590001215579URIEL PEREIRA GOTZ                                          1968040672792981920M2EST0120170201403100   000000000000000000000000000000000000000000040000000743
590001215746HEDER SILVA E NORONHA                                       1961071122511458187M2EST0820170201403100   000000000000000000000000000001500000005563640000000315
590001215765ROSAMELIA DUARTE ARAUJO CAMPOS                              1970053071963340434F2EST0120170201403100   000000000000000000000000000000000000000000040000000687
590001215772FELIPE FAJARDO FASSY                                        1975082581429991100M3EST0120170201403100   000000000000000000000000000000000000000000040000000373
590001215796MARCELO SALERNO SANTOS                                      1972111288608280744M2EST0120170201403100   000000000000000000000000000000000000000000040000000901
590001215797LEONINO GOMES ROCHA                                         1966060623376554315M2EST0120170201403100FEX010420220726000000000000008260000000000000040000000826
590001215842ANDRE KENJI ARAKAKI                                         1973022660293381100M2EST0120170201403100FEX010420220726000000000000008640000000000000040000000864
590001215854EDUARDO JOSE COSTA MELLO                                    1970071039256294168M2EST0820170201403100   000000000000000000000000000002010100000261240000000315
590001215867JONAS ALVES DOS REIS                                        1971080763751720472M2EST0120170201403100   000000000000000000000000000000000000000000040000000716
590001216100MAURICIO RENATO ALVES                                       1962052743104720606M4EST0120170201403101   000000000000000000000000000000000000000000040000000659
590001216236JOSE ROBERTO DE OLIVEIRA NEGRAO                             1959032709436154291M2EST0820170201403100   000000000000000000000000000002644303500000040000000663
590001216251FABIO ALEXANDRE FRAGA AVILA                                 1971100356355815104M2EST0120170201403100   000000000000000000000000000000000000000000040000000387
590001216266PAULO RENATO LANDIM DE CARVALHO                             1965121722041737387M2EST0120170201403100CCX010220220726000000000000008340000000000000040000000834
590001216340SEBASTIAO EMILIO COELHO                                     1962012211237328845M1EST0120170201403100   000000000000000000000000000000000000000000040000000618
590001216625MARIA HELENA BRETAS DE ALMEIDA                              1961061646673059672F1EST0120170201403100   000000000000000000000000000000000000000000040000000468
590001216752SERGIO FILGUEIRAS DE PAULA                                  1973121255396461187M2EST0120170201403100FEX011320220726000000000000003780000000000000040000000378
590001216882FLAVIO PERES PEREIRA                                        1964081341829786091M1EST0120170201403100   000000000000000000000000000000000000000000040000000744
590001216896FERNANDO RODRIGUES JOAO JUNIOR                              1968101890563034734M2EST0120170201403100CCX010220220726202305160000008600000000000000040000000860
590001216897EVELINE MARTINS BRITO                                       1968101135873124353F1EST0120170201403100FEX011520230109000000000000003680000000000000040000000368
590001217084FABIO DO VALLE VALGAS DA SILVA                              1970122826442574253M2EST0120170201403100   000000000000000000000000000000000000000000040000000330
590001217119MARCOS DE SOUZA FONSECA GUIMARAES                           1972112101622356900M2EST0120170201403100   000000000000000000000000000000000000000000040000000449
590001217130DEMIAN BIANCHI BERTOZZI                                     1975102195229299991M2EST0120170201403100CCX010320220726000000000000008150000000000000040000000815
590001217374MILENA LUZ BARBOSA                                          1970070254007496153F4EST0820170201403100   000000000000000000000000000004011600000124840000000315
590001217419CARLOS KILDARE SANTOS MAGALHAES                             1971073044091656315M2EST0120170201403101CCX010220220726000000000000008530000000000000040000000853
590001217570VERA LUCIA DE SOUZA SALGADO                                 1967072518093892249F1EST0120170201403100   000000000000000000000000000000000000000000040000000753
590001217627CARLOS EDUARDO GIRAO DE ARRUDA                              1971042351941228100M2EST0820170201403100   000000000000000000000000000000000000000000040000000315
590001217890ANA PAULA SALLES COELHO DA VEIGA                            1973100403527091700F2EST0120170201403100   000000000000000000000000000000000000000000040000000706
590001217973ELAINE ABE RODRIGUES E ROCHA                                1972082948207659300F2EST0120170201403101   000000000000000000000000000000000000000000040000000460
590001218228LILSON ABELARDO MESSIAS SALDANHA                            1973050452564614191M2EST0120170201403100CCX010220230707000000000000008510000000000000040000000851
590001218347ELBER STILBEN DE SOUZA                                      1966050390567382753M2EST0120170201403100FEX010420230803000000000000008430000000000000040000000843
590001218540ROBERTO BORGES SILVA                                        1965041840191630497M4EST0120170201403100FPE101120170201201807300000002660000000000000040000000818
590001218690ALZIRA ESTER ANGELI                                         1968040596588942753F2EST0120170201403100FGR000120191210202005270000006840000000000000040000000974
590001218775LUCIO MEIRA DE MESQUITA                                     1972030966658373191M2EST0120170201403101CCX010420230327000000000000009960000000000000040000000996
590001219227FABIO FARNESE DIAS MARTINS                                  1965052560661321649M2EST0120170201403101   000000000000000000000000000000000000000000040000000974
590001219662MARCUS GALLIAC SAAVEDRA                                     1968053036894273120M2EST0120170201403100   000000000000000000000000000000000000000000040000000392
590001219745CLEOMAR VIANA BATISTA                                       1966061155271324672M2EST0120170201403100   000000000000000000000000000000000000000000040000000906
590001219843LUIS SERGIO DE OLIVEIRA LOPES                               1963081822067809334M2EST0120170201403100CCX010220220726202212260000008770000000000000040000000824
590001220903SONIA MARIA MENDES MORAES SILVA                             1970052137602640349F2EST0120170201403100FEX011320230303000000000000007300000000000000040000000730
590001221383JIVAGO GRANGEIRO FERRER                                     1971112856369590100M2EST0120170201403100   000000000000000000000000000000000000000000040000000382
590001221592JOEL DOS SANTOS BRANDAO                                     1971040138676931372M2EST0120170201403100   000000000000000000000000000000000000000000040000000767
590001222115ADONIAS DE FIGUEIREDO AGUIAR                                1971042253900847134M2EST0120170201403100   000000000000000000000000000000000000000000040000000627
590001225987ARNALDO GUILHERME DE OLIVEIRA                               1967072126098598304M4EST0120170201403100FEX010420220726202208020000008380000000000000040000000613
590001241343RENAN APARECIDO DE ARAUJO                                   1970101972940913668M2EST0120170201403100   000000000000000000000000000000000000000000040000000627
590001241516MARCELO AUGUSTO RODRIGUES PIMENTEL                          1979061885782688149M2EST0120170201403100FEX011320220726000000000000003500000000000000040000000350
590001249927ANA PAULA BICALHO FELIX DE ALMEIDA                          1974110861996416120F4EST0120170201403100   000000000000000000000000000000000000000000040000000479
590001250055PAULO OSSAMU ITO                                            1969091844815476187M2EST0120170201403100   000000000000000000000000000000000000000000040000000648
590001254040ALFREDO JACKSON PEREIRA DE ARAUJO                           1968090830311934315M2EST0120170201403100   000000000000000000000000000000000000000000040000000613
590001256892ALEXANDRE ALMIR LOPES DA FONSECA                            1964091679406971704M2EST0120170201403100   000000000000000000000000000000000000000000040000000392
590001258105JERRI EDDIE XAVIER COELHO                                   1967042744686196000M4EST0820170201403100   000000000000000000000000000000000000000000040000000722
590001258135RAQUEL DE MELO TODESCHI                                     1971121991050189604F4EST0120170201403100   000000000000000000000000000000000000000000040000000403
590001259019JEFFERSON DE FREITAS MARTINS                                1974032701697201954M2EST0120170201403100FEX011320230131000000000000003360000000000000040000000336
590001261741SERGIO AUGUSTO SANTOS DE MORAES                             1959022207430000215M2EST0120170201403100   000000000000000000000000000000000000000000040000000474
590001266025DANIEL DIAS RAMOS                                           1969081354366950197M2EST0120170201403100   000000000000000000000000000000000000000000040000000649
590001273088JANILDO GUEDES SOARES                                       1973021001654300799M2EST0820170201403100   000000000000000000000000000000000000000000040000000315
590001275608FABIANE DANTAS RIOS VASCONCELOS                             1978110778301289520F1EST0120170201403100   000000000000000000000000000000000000000000040000000489
590001276266ALESSANDRO DE OLIVEIRA BORGES                               1971120657527563168M2EST0120170201403100   000000000000000000000000000000000000000000040000000377
590001278843VINICIUS MARQUES ALVES BRANCO                               1977052491506492568M1EST0120170201403100   000000000000000000000000000000000000000000040000000355
590001280259PAULO HENRIQUE FONSECA BORGES                               1976030200286194635M2EST0120170201403100   000000000000000000000000000000000000000000040000000712
590001280263AMARILDO JOSE LEITE                                         1970051508628258817M1EST0820170201403101   000000000000000000000000000002022400000016840000000315
590001280295GUISLENY CAMPOS CASSIMIRO QUEIROGA                          1974040549756729368F2EST0120170201403101   000000000000000000000000000000000000000000040000000673
590001280419LEYLANE MARIA DA SILVA                                      1979033069116245334F1EST0120170201403100FEX011520221208202301020000004010000000000000040000000632
590001280603JAIME RICARDO DE BRITO                                      1965091647509074053M2EST0120170201403100FPE101220190507202010010000007250000000000000040000000725
590001280660CRISTINA SILVA DA CONCEICAO                                 1975041102720989657F1EST0120170201403100   000000000000000000000000000000000000000000040000000659
590001280670CRISTINA KOCH GUIMARAES                                     1975100278444985104F4EST0120170201403100   000000000000000000000000000000000000000000030000000758
590001280705VALERIA CARVALHO DE OLIVEIRA MACEDO                         1969050266250366415F2EST0120170201403100   000000000000000000000000000000000000000000040000000581
590001280834FRANKLIN BRASIL SANTOS                                      1978021889086511104M2EST0120170201403100   000000000000000000000000000000000000000000040000000526
590001280868GEORGIA MARIA POMPEO E SILVA                                1973010357100144191F2EST0120170201403100FEX010520220726000000000000006420000000000000040000000642
590001280892EDUARDO LUIZ FLORIANO                                       1964041073899062949M2EST0120170201403100   000000000000000000000000000000000000000000040000000471
590001280898JOAO MARCELO MARTINS                                        1976030901804166936M4EST0120170201403100FEX010520230306000000000000007440000000000000040000000744
590001280901RICARDO MUGNOL                                              1972112600397356994M2EST0120170201403101   000000000000000000000000000000000000000000040000000681
590001280909NIARCOS WALL THOMAZ DE ALMEIDA                              1977013102338607970M2EST0820170201403101   000000000000000000000000000001750000000305540000000315
590001280939EVILASIO MARTINS HOLANDA FILHO                              1971111639773922391M1EST0120170201403101   000000000000000000000000000000000000000000040000000609
590001280988ESTEVAM HENRIQUE SILVEIRA BARBOSA                           1972041839227421220M2EST0120170201403101   000000000000000000000000000000000000000000040000000665
590001280991JOSE CARLOS REZENDE BISPO DOS SANTOS                        1970061935600586272M2EST0120170201403100   000000000000000000000000000000000000000000040000000664
590001281012LISANDRA CRISTINA FELIX                                     1972090354266866100F2EST0120170201403100   000000000000000000000000000000000000000000040000000649
590001281070LUCIANO ABREU BRANDAO                                       1971091600793087759M2EST0120170201403100FEX010520220726000000000000006190000000000000040000000619
590001281090MARCOS MENDONCA DA SILVA                                    1975050367002994115M2EST0820170201403101   000000000000000000000000000003925100000000640000000315
590001281116MARCIO AUGUSTO ANDRADE SAMPAIO                              1978111093018932587M2EST0120170201403100   000000000000000000000000000000000000000000040000000602
590001281141MARIA DAS GRACAS VIANNA QUEIROZ BRANDAO                     1971042801729494757F2EST0120170201403100   000000000000000000000000000000000000000000040000000618
590001281166RENATO CAMILLO                                              1967051540349489149M2EST0120170201403100CCX010220220726202310040000008440000000000000040000000844
590001281168ROGERIO DE AGUIAR LUZ                                       1973041960091533104M4EST0120170201403100   000000000000000000000000000000000000000000040000000843
590001281172TITO PABLO STOLF                                            1971060681856300978M2EST0120170201403100FPE101120210208202109150000007430000000000000040000000894
590001281222FABIANO LESSA LORENZONI                                     1974032207694063785M2EST0120170201403100   000000000000000000000000000000000000000000040000000618
590001281427MARCIO AURELIO SOBRAL                                       1975052725563786897M2EST0120170201403101FEX010720220726000000000000009150000000000000040000000915
590001281429EULER JULIO DO AMARAL                                       1974020900293650667M2EST0120170201403101   000000000000000000000000000000000000000000040000000656
590001281441SERGIO AUGUSTO NAVEGANTES JR                                1971101300437942708M1EST0120170201403101FEX010720220726000000000000004810000000000000040000000481
590001281455EURIPEDES RODRIGUES DE ANDRADE FILHO                        1968010671789693420M4EST0120170201403100   000000000000000000000000000000000000000000040000000802
590001281491EVERALDO FRANCISCO DA CONCEICAO                             1973080702639951947M1EST0120170201403101   000000000000000000000000000000000000000000040000000681
590001281492AMAZILIO ALVES BARBOSA JUNIOR                               1973112144534639287M2EST0120170201403100   000000000000000000000000000000000000000000040000000442
590001281506ABDON MILTON PINTO                                          1972011102076538798M2EST0120170201403101   000000000000000000000000000000000000000000040000000742
590001281508MARCIO ALESSANDRO MOTA COUTO                                1971090289751515653M2EST0120170201403101CCX010220221222000000000000008090000000000000040000000809
590001281616LUIS JOACY BARRETO DE MATOS                                 1963112432915411549M1EST0120170201403101   000000000000000000000000000000000000000000040000000854
590001282110MAURICIO FERNANDO JATOBA DE ALMEIDA                         1970022278447135420M2EST0120170201403100   000000000000000000000000000000000000000000040000000687
590001282361MARIA HELENA KERBER                                         1969060960708336000F2EST0120170201403100   000000000000000000000000000000000000000000040000000907
590001282449NOEME BOTELHO GOULART                                       1972110691342244672F2EST0120170201403100   000000000000000000000000000000000000000000040000000386
590001282455MARCIA SALOMAO BRITO                                        1958103112421189349F1EST0120170201403100   000000000000000000000000000000000000000000040000000632
590001282456SILVIA HELENA ESCOVAR                                       1965030408365276828F4EST0120170201403100   000000000000000000000000000000000000000000040000000490
590001282501DEOCLIDES DOS SANTOS COSTA DIAS                             1974030549389874300M1EST0120170201403100CCX010220220726202308230000008370000000000000040000000837
590001282512MAXWELL NOVAIS OLIVEIRA                                     1974080466658497168M1EST0820170201403100   000000000000000000000000000002010100000300040000000330
590001282528MICHEL CAVALCANTE PINTO                                     1967112942419808304M1EST0820170201403100   000000000000000000000000000000000000000000040000000609
590001282535HUMBERTO DE MENDONCA GOMES JUNIOR                           1962091329774721187M2EST0120170201403100   000000000000000000000000000002010100000300940000000315
590001282598MARIANA COELHO BARBOSA                                      1974040579498710406F2EST0120170201403100   000000000000000000000000000000000000000000040000000813
590001282639DIELSON CLAUDIO DOS SANTOS                                  1968070397588296704M2EST0820170201403100   000000000000000000000000000002644300700000040000000617
590001282659EDUARDO NUNES FREIRE                                        1971112965142527020M2EST0120170201403100   000000000000000000000000000000000000000000040000000506
590001282660LUCIANA MARIA DE SOUZA SALGADO                              1969021130830087249F2EST0120170201403100FGR000120200127202207260000007560000000000000040000000754
590001282662PABLO RHODEN                                                1974012371964983053M2EST0120170201403100FGR000320170201201705230000002950000000000000040000000725
590001282682MARIA AMALIA DA COSTA BAIRRAL                               1969062000946071764F1EST0120170201403100   000000000000000000000000000000000000000000040000000707
590001282734ROSA TOMIE SAKAMOTO KAMIMURA                                1967060707725607811F2EST0120170201403101   000000000000000000000000000000000000000000040000000681
590001282740LUCIANE BARONCINI VILLELA                                   1966081575920530987F1EST0120170201403101   000000000000000000000000000000000000000000040000000681
590001282782DANIELA DE SYLOS CASSIMIRO                                  1971052616181398864F2EST0120170201403100   000000000000000000000000000000000000000000040000000604
590001282789ANTONIO AFONSO DA SILVA                                     1959122935074256615M4EST0820170201403100   000000000000000000000000000003200000000021640000000315
590001282818MARCOS ANTONIO TENORIO DE LIMA                              1966121857576513691M1EST0120170201403100   000000000000000000000000000000000000000000040000000753
590001282828ANTONIO LAZARO SOARES DO AMPARO                             1970071750559044534M2EST0120170201403100FEX010520220726000000000000008230000000000000040000000823
590001282843CRISTIANE CUNHA PITTA LIMA                                  1970010656596383504F2EST0120170201403100FEX010720230620202308250000009090000000000000040000000909
590001282847ANDRE LUIZ HOLANDA BATISTA                                  1973121465346009434M2EST0120170201403100   000000000000000000000000000000000000000000040000000688
590001282863ALEXANDRE FERREIRA MACEDO                                   1969040410260231819M1EST0120170201403100   000000000000000000000000000000000000000000040000000456
590001282880JACOB EDUARDO ROZENBERG                                     1968102788775402734M2EST0120170201403100   000000000000000000000000000000000000000000040000000705
590001282903JOAO ALBERTO DE MENEZES                                     1972062381278985972M2EST0120170201403100FEX010420220726000000000000008140000000000000040000000814
590001283011CLEOMENES VIANA BATISTA                                     1964010849447718604M2EST0820170201403100   000000000000000000000000000002644304300000040000000315
590001283048EDSON LUIZ DAS NEVES                                        1961122726158515353M1EST0120170201403100   000000000000000000000000000000000000000000040000000717
590001283287FLAVIO MASSASHI TAGOMORI                                    1967012708901202859M2EST0120170201403100   000000000000000000000000000000000000000000040000000753
590001283288CELSO EGITO BARDELLA                                        1964062408634064832M2EST0120170201403100   000000000000000000000000000000000000000000040000000751
590001283362WYLMAR DUARTE NASCIMENTO                                    1960092258002944615M2EST0120170201403100   000000000000000000000000000000000000000000040000000753
590001283583SALATIEL ROBSON BARBOSA DE OLIVEIRA                         1974012480192823434M2EST0120170201403100   000000000000000000000000000000000000000000040000000359
590001283730EMILIO CARLOS BORGES                                        1975030782849617687M2EST0120170201403101FPE101220170201201901300000001390000000000000040000000460
590001283731EUCLIDES PEREIRA DO LAGO JUNIOR                             1978042061976644100M2EST0120170201403100   000000000000000000000000000000000000000000040000000352
590001283761DEMETRIUS BATISTA BORGES                                    1978102684650630100M1EST0120170201403100FEX010620220726202301240000009120000000000000040000000561
590001284011FLAVIO REZENDE DEMATTE                                      1977070905227931771M2EST0120170201403100FEX021520230106000000000000003150000000000000040000000315
590001285645MARCIO DE AQUINO TERRA                                      1971021653862848191M2EST0820170201403100   000000000000000000000000000001320000000012440000000315
590001285988ALEXANDRE DOS SANTOS MUNIZ                                  1978091262925229204M4EST0120170201403100FEX010520220726000000000000007320000000000000040000000732
590001286622ISLANDIO MONTEIRO DE SOUZA                                  1977032661810908272M2EST0120170201403100FEX010520220726000000000000005750000000000000040000000575
590001286943JOSE ANTONIO GOUVEA GALHARDO                                1965060871115331787M5EST0120170201403100   000000000000000000000000000000000000000000040000000915
590001287619CARLOS ALBERTO RAMBO                                        1962092538383250010M2EST0120170201403100FEX011320220726202302100000006780000000000000040000000974
590001289610KLEBERSON ROBERTO DE SOUZA                                  1978042465124650168M2EST0120170201403100FPE101120170201201804190000002560000000000000040000000640
590001289697LUIS ROBERTO SILVA LIMA                                     1968112354975468549M2EST0120170201403100   000000000000000000000000000000000000000000040000000603
590001289894JOSE LEONARDO RIBEIRO NASCIMENTO                            1980081596963824568M2EST0120170201403100FPE101120190201202001200000007600000000000000040000000863
590001295372LUCIMAR CEZAR FERNANDES                                     1968020297326356734F4EST0120170201403100   000000000000000000000000000000000000000000040000000717
590001298080ANDRE LUIZ GONCALVES BITTENCOURT                            1976061556471351291M4EST0120170201403100   000000000000000000000000000000000000000000040000000682
